:1000000049C0000057C0000055C0000053C00000A8
:1000100051C000004FC000004DC000004BC00000A8
:1000200049C0000047C0000045C0000043C00000B8
:1000300041C000003FC000003DC000003BC00000C8
:1000400039C0000037C0000079C0000033C0000094
:1000500031C000002FC000002DC000002BC00000E8
:1000600029C0000027C0000025C0000023C00000F8
:1000700021C000001FC000001DC000001BC0000008
:1000800019C0000017C0000015C0000013C0000018
:1000900011C0000011241FBECFEFD0E1DEBFCDBFE5
:1000A00021E0A0E0B1E001C01D92A83BB207E1F75A
:1000B000F3D170C2A5CFCF93DF93E8EDF0E081E0FC
:1000C00080838EEF8093E2008CE08093E30087E3EF
:1000D0008093E4001092E7001092E6001092E9008D
:1000E0001092E8001092EC001092E500CDEED0E006
:1000F0001882AEEEB0E01C9280E188831C921092D0
:10010000F4001092F60080E28093F7001092F00065
:100110001092F2001092F30080E88093EF0083E0E9
:100120008093DC008093DE0080EB8093DB0082E034
:10013000808310920001DF91CF9108951F920F925A
:100140000FB60F9211240BB60F922F933F934F933C
:100150005F936F938F939F93AF93BF93EF93FF93AF
:10016000CF93DF931F92CDB7DEB78091E00080FF81
:1001700047C09091DE0090FF43C01092ED00EEEE7C
:10018000F0E08081898380818F7B8083809105016D
:1001900090910401981789F187702BE0829FC0012C
:1001A0001124FC01E85FFE4F20812093F0002081A4
:1001B0002093F20021812093F3002381AAEFB0E085
:1001C0002C9324812C9325812C9326812C93278199
:1001D0002C9320852C9321852C9322852C93FC0134
:1001E000E65FFE4F80818F7080648093EF00809186
:1001F00005018F5F809305017CC01092030179C0D7
:1002000081FF77C08091DE0081FF73C080E1809321
:10021000ED0080910101282F30E090910201291B0F
:1002200031092F773327283031050CF058C0E82FDB
:10023000E7709091EF002E2F30E04BE0E49FF0014B
:100240001124E05AFE4F9F704281407F942B92838D
:100250009091F2004091F0004770907E942B908333
:100260009091F3009183AAEFB0E09C9193839C91CD
:1002700094839C9195839C9196839C9197839C9168
:1002800090879C9191879C9192878F5F80930101C9
:1002900040814295469547705181652F660F660FE4
:1002A000660F862F842B952F929596959770892BA4
:1002B000B1F48BE0829FF001839FF00D1124E05A8E
:1002C000FE4F8381833059F498E088E10FB6F894AB
:1002D000A895809360000FBE90936000FFCFEEEE74
:1002E000F0E08081898380818F7D808380E88093A6
:1002F000EF000F90DF91CF91FF91EF91BF91AF9100
:100300009F918F916F915F914F913F912F910F909E
:100310000BBE0F900FBE0F901F901895DC01EBEDF8
:10032000F0E080818F7780838091030181113AC052
:100330001092ED008C918093F0008C918093F200EC
:1003400011968C9111978093F30013968C911397CB
:10035000EAEFF0E0808314968C91149780831596D1
:100360008C911597808316968C911697808317969B
:100370008C911797808318968C9118978083199683
:100380008C91199780831A968C911A97808381E0BB
:100390008093030112968C918F7080648093EF009C
:1003A00081E026C060910401862F90E02091050134
:1003B000821B91098F7799270897C9F020E030E0D8
:1003C000462F47708BE0489FA00111248D91FA01C0
:1003D000E20FF31FE85FFE4F80832F5F3F4F2B300C
:1003E0003105A1F76F5F6093040181E001C080E0F7
:1003F000EBEDF0E090819068908308958091020188
:1004000087702BE0829FC0011124805A9E4F08956F
:100410008091020190910101981719F08F5F8093EC
:100420000201089581E020910101909102012913B8
:1004300001C080E00895FA01382F3295330F307EE5
:1004400020812F71232B20839295990F907E869582
:1004500086958695892B81838281807F81608283C6
:100460006383CA015BCF08958091060190910701D3
:10047000892B51F485B18F7185B981E090E090931B
:10048000070180930601089585B1806E85B91092A9
:100490000701109206010895CF93DF93CDB7DEB721
:1004A00066970FB6F894DEBF0FBECDBFF89403DE9B
:1004B00084B18FEF84B985B1806E85B978948981D4
:1004C0008F71806289831A8281E08C838B81807F27
:1004D00081608B83C9DF84E690E0EFE5FAEE319727
:1004E000F1F700C000000197C1F7BE016C5F7F4FBC
:1004F00089818295869587709A81292F220F220FF4
:10050000220FAE014F5F5F4F822B929596959770A9
:1005100092DFAADF0F2EF4E6DF2EF02DE12CFF2470
:10052000F3948E01015F1F4F7DDF8823E9F366DFBF
:10053000FC0190819295969597708181482F440F88
:10054000440F440F242F292B382F329536953770BE
:1005500023303105E9F488DF8D2D9E2DEFE5FAEE8D
:100560003197F1F700C000000197C1F78C858F71BA
:1005700080628C871D86FF868E85807F81608E8756
:10058000AE01445F5F4F602F81E090E054DF6CDF8D
:080590003FDFCACFF894FFCF52
:00000001FF
